{
  "_format": "hh-sol-artifact-1",
  "contractName": "D3scord",
  "sourceName": "contracts/D3scord.sol",
  "abi": [
    {
      "inputs": [
        {
          "internalType": "string",
          "name": "_name",
          "type": "string"
        },
        {
          "internalType": "string",
          "name": "_symbol",
          "type": "string"
        }
      ],
      "stateMutability": "nonpayable",
      "type": "constructor"
    },
    {
      "anonymous": false,
      "inputs": [
        {
          "indexed": true,
          "internalType": "address",
          "name": "owner",
          "type": "address"
        },
        {
          "indexed": true,
          "internalType": "address",
          "name": "approved",
          "type": "address"
        },
        {
          "indexed": true,
          "internalType": "uint256",
          "name": "tokenId",
          "type": "uint256"
        }
      ],
      "name": "Approval",
      "type": "event"
    },
    {
      "anonymous": false,
      "inputs": [
        {
          "indexed": true,
          "internalType": "address",
          "name": "owner",
          "type": "address"
        },
        {
          "indexed": true,
          "internalType": "address",
          "name": "operator",
          "type": "address"
        },
        {
          "indexed": false,
          "internalType": "bool",
          "name": "approved",
          "type": "bool"
        }
      ],
      "name": "ApprovalForAll",
      "type": "event"
    },
    {
      "anonymous": false,
      "inputs": [
        {
          "indexed": false,
          "internalType": "uint256",
          "name": "id",
          "type": "uint256"
        },
        {
          "indexed": false,
          "internalType": "string",
          "name": "name",
          "type": "string"
        },
        {
          "indexed": false,
          "internalType": "uint256",
          "name": "cost",
          "type": "uint256"
        }
      ],
      "name": "ChannelCreated",
      "type": "event"
    },
    {
      "anonymous": false,
      "inputs": [
        {
          "indexed": true,
          "internalType": "address",
          "name": "to",
          "type": "address"
        },
        {
          "indexed": false,
          "internalType": "uint256",
          "name": "channelId",
          "type": "uint256"
        },
        {
          "indexed": false,
          "internalType": "uint256",
          "name": "tokenId",
          "type": "uint256"
        }
      ],
      "name": "TokenMinted",
      "type": "event"
    },
    {
      "anonymous": false,
      "inputs": [
        {
          "indexed": true,
          "internalType": "address",
          "name": "from",
          "type": "address"
        },
        {
          "indexed": true,
          "internalType": "address",
          "name": "to",
          "type": "address"
        },
        {
          "indexed": true,
          "internalType": "uint256",
          "name": "tokenId",
          "type": "uint256"
        }
      ],
      "name": "Transfer",
      "type": "event"
    },
    {
      "inputs": [
        {
          "internalType": "address",
          "name": "to",
          "type": "address"
        },
        {
          "internalType": "uint256",
          "name": "tokenId",
          "type": "uint256"
        }
      ],
      "name": "approve",
      "outputs": [],
      "stateMutability": "nonpayable",
      "type": "function"
    },
    {
      "inputs": [
        {
          "internalType": "address",
          "name": "owner",
          "type": "address"
        }
      ],
      "name": "balanceOf",
      "outputs": [
        {
          "internalType": "uint256",
          "name": "",
          "type": "uint256"
        }
      ],
      "stateMutability": "view",
      "type": "function"
    },
    {
      "inputs": [
        {
          "internalType": "uint256",
          "name": "",
          "type": "uint256"
        }
      ],
      "name": "channels",
      "outputs": [
        {
          "internalType": "uint256",
          "name": "id",
          "type": "uint256"
        },
        {
          "internalType": "string",
          "name": "name",
          "type": "string"
        },
        {
          "internalType": "uint256",
          "name": "cost",
          "type": "uint256"
        }
      ],
      "stateMutability": "view",
      "type": "function"
    },
    {
      "inputs": [
        {
          "internalType": "string",
          "name": "_name",
          "type": "string"
        },
        {
          "internalType": "uint256",
          "name": "_cost",
          "type": "uint256"
        }
      ],
      "name": "createChannel",
      "outputs": [],
      "stateMutability": "nonpayable",
      "type": "function"
    },
    {
      "inputs": [
        {
          "internalType": "uint256",
          "name": "tokenId",
          "type": "uint256"
        }
      ],
      "name": "getApproved",
      "outputs": [
        {
          "internalType": "address",
          "name": "",
          "type": "address"
        }
      ],
      "stateMutability": "view",
      "type": "function"
    },
    {
      "inputs": [
        {
          "internalType": "uint256",
          "name": "_id",
          "type": "uint256"
        }
      ],
      "name": "getChannel",
      "outputs": [
        {
          "components": [
            {
              "internalType": "uint256",
              "name": "id",
              "type": "uint256"
            },
            {
              "internalType": "string",
              "name": "name",
              "type": "string"
            },
            {
              "internalType": "uint256",
              "name": "cost",
              "type": "uint256"
            }
          ],
          "internalType": "struct D3scord.Channel",
          "name": "",
          "type": "tuple"
        }
      ],
      "stateMutability": "view",
      "type": "function"
    },
    {
      "inputs": [
        {
          "internalType": "uint256",
          "name": "",
          "type": "uint256"
        },
        {
          "internalType": "address",
          "name": "",
          "type": "address"
        }
      ],
      "name": "hasJoined",
      "outputs": [
        {
          "internalType": "bool",
          "name": "",
          "type": "bool"
        }
      ],
      "stateMutability": "view",
      "type": "function"
    },
    {
      "inputs": [
        {
          "internalType": "address",
          "name": "owner",
          "type": "address"
        },
        {
          "internalType": "address",
          "name": "operator",
          "type": "address"
        }
      ],
      "name": "isApprovedForAll",
      "outputs": [
        {
          "internalType": "bool",
          "name": "",
          "type": "bool"
        }
      ],
      "stateMutability": "view",
      "type": "function"
    },
    {
      "inputs": [
        {
          "internalType": "uint256",
          "name": "_id",
          "type": "uint256"
        }
      ],
      "name": "mint",
      "outputs": [],
      "stateMutability": "payable",
      "type": "function"
    },
    {
      "inputs": [],
      "name": "name",
      "outputs": [
        {
          "internalType": "string",
          "name": "",
          "type": "string"
        }
      ],
      "stateMutability": "view",
      "type": "function"
    },
    {
      "inputs": [],
      "name": "owner",
      "outputs": [
        {
          "internalType": "address",
          "name": "",
          "type": "address"
        }
      ],
      "stateMutability": "view",
      "type": "function"
    },
    {
      "inputs": [
        {
          "internalType": "uint256",
          "name": "tokenId",
          "type": "uint256"
        }
      ],
      "name": "ownerOf",
      "outputs": [
        {
          "internalType": "address",
          "name": "",
          "type": "address"
        }
      ],
      "stateMutability": "view",
      "type": "function"
    },
    {
      "inputs": [
        {
          "internalType": "address",
          "name": "from",
          "type": "address"
        },
        {
          "internalType": "address",
          "name": "to",
          "type": "address"
        },
        {
          "internalType": "uint256",
          "name": "tokenId",
          "type": "uint256"
        }
      ],
      "name": "safeTransferFrom",
      "outputs": [],
      "stateMutability": "nonpayable",
      "type": "function"
    },
    {
      "inputs": [
        {
          "internalType": "address",
          "name": "from",
          "type": "address"
        },
        {
          "internalType": "address",
          "name": "to",
          "type": "address"
        },
        {
          "internalType": "uint256",
          "name": "tokenId",
          "type": "uint256"
        },
        {
          "internalType": "bytes",
          "name": "data",
          "type": "bytes"
        }
      ],
      "name": "safeTransferFrom",
      "outputs": [],
      "stateMutability": "nonpayable",
      "type": "function"
    },
    {
      "inputs": [
        {
          "internalType": "address",
          "name": "operator",
          "type": "address"
        },
        {
          "internalType": "bool",
          "name": "approved",
          "type": "bool"
        }
      ],
      "name": "setApprovalForAll",
      "outputs": [],
      "stateMutability": "nonpayable",
      "type": "function"
    },
    {
      "inputs": [
        {
          "internalType": "bytes4",
          "name": "interfaceId",
          "type": "bytes4"
        }
      ],
      "name": "supportsInterface",
      "outputs": [
        {
          "internalType": "bool",
          "name": "",
          "type": "bool"
        }
      ],
      "stateMutability": "view",
      "type": "function"
    },
    {
      "inputs": [],
      "name": "symbol",
      "outputs": [
        {
          "internalType": "string",
          "name": "",
          "type": "string"
        }
      ],
      "stateMutability": "view",
      "type": "function"
    },
    {
      "inputs": [
        {
          "internalType": "uint256",
          "name": "tokenId",
          "type": "uint256"
        }
      ],
      "name": "tokenURI",
      "outputs": [
        {
          "internalType": "string",
          "name": "",
          "type": "string"
        }
      ],
      "stateMutability": "view",
      "type": "function"
    },
    {
      "inputs": [],
      "name": "totalChannels",
      "outputs": [
        {
          "internalType": "uint256",
          "name": "",
          "type": "uint256"
        }
      ],
      "stateMutability": "view",
      "type": "function"
    },
    {
      "inputs": [],
      "name": "totalSupply",
      "outputs": [
        {
          "internalType": "uint256",
          "name": "",
          "type": "uint256"
        }
      ],
      "stateMutability": "view",
      "type": "function"
    },
    {
      "inputs": [
        {
          "internalType": "address",
          "name": "from",
          "type": "address"
        },
        {
          "internalType": "address",
          "name": "to",
          "type": "address"
        },
        {
          "internalType": "uint256",
          "name": "tokenId",
          "type": "uint256"
        }
      ],
      "name": "transferFrom",
      "outputs": [],
      "stateMutability": "nonpayable",
      "type": "function"
    },
    {
      "inputs": [],
      "name": "withdraw",
      "outputs": [],
      "stateMutability": "nonpayable",
      "type": "function"
    }
  ],
  "bytecode": "0x60806040523480156200001157600080fd5b5060405162003ff338038062003ff3833981810160405281019062000037919062000243565b818181600090816200004a919062000513565b5080600190816200005c919062000513565b505050600160068190555033600960006101000a81548173ffffffffffffffffffffffffffffffffffffffff021916908373ffffffffffffffffffffffffffffffffffffffff1602179055505050620005fa565b6000604051905090565b600080fd5b600080fd5b600080fd5b600080fd5b6000601f19601f8301169050919050565b7f4e487b7100000000000000000000000000000000000000000000000000000000600052604160045260246000fd5b6200011982620000ce565b810181811067ffffffffffffffff821117156200013b576200013a620000df565b5b80604052505050565b600062000150620000b0565b90506200015e82826200010e565b919050565b600067ffffffffffffffff821115620001815762000180620000df565b5b6200018c82620000ce565b9050602081019050919050565b60005b83811015620001b95780820151818401526020810190506200019c565b60008484015250505050565b6000620001dc620001d68462000163565b62000144565b905082815260208101848484011115620001fb57620001fa620000c9565b5b6200020884828562000199565b509392505050565b600082601f830112620002285762000227620000c4565b5b81516200023a848260208601620001c5565b91505092915050565b600080604083850312156200025d576200025c620000ba565b5b600083015167ffffffffffffffff8111156200027e576200027d620000bf565b5b6200028c8582860162000210565b925050602083015167ffffffffffffffff811115620002b057620002af620000bf565b5b620002be8582860162000210565b9150509250929050565b600081519050919050565b7f4e487b7100000000000000000000000000000000000000000000000000000000600052602260045260246000fd5b600060028204905060018216806200031b57607f821691505b602082108103620003315762000330620002d3565b5b50919050565b60008190508160005260206000209050919050565b60006020601f8301049050919050565b600082821b905092915050565b6000600883026200039b7fffffffffffffffffffffffffffffffffffffffffffffffffffffffffffffffff826200035c565b620003a786836200035c565b95508019841693508086168417925050509392505050565b6000819050919050565b6000819050919050565b6000620003f4620003ee620003e884620003bf565b620003c9565b620003bf565b9050919050565b6000819050919050565b6200041083620003d3565b620004286200041f82620003fb565b84845462000369565b825550505050565b600090565b6200043f62000430565b6200044c81848462000405565b505050565b5b8181101562000474576200046860008262000435565b60018101905062000452565b5050565b601f821115620004c3576200048d8162000337565b62000498846200034c565b81016020851015620004a8578190505b620004c0620004b7856200034c565b83018262000451565b50505b505050565b600082821c905092915050565b6000620004e860001984600802620004c8565b1980831691505092915050565b6000620005038383620004d5565b9150826002028217905092915050565b6200051e82620002c8565b67ffffffffffffffff8111156200053a5762000539620000df565b5b62000546825462000302565b6200055382828562000478565b600060209050601f8311600181146200058b576000841562000576578287015190505b620005828582620004f5565b865550620005f2565b601f1984166200059b8662000337565b60005b82811015620005c5578489015182556001820191506020850194506020810190506200059e565b86831015620005e55784890151620005e1601f891682620004d5565b8355505b6001600288020188555050505b505050505050565b6139e9806200060a6000396000f3fe6080604052600436106101355760003560e01c806370a08231116100ab578063a14865cd1161006f578063a14865cd1461042d578063a22cb46514610456578063b88d4fde1461047f578063c87b56dd146104a8578063e5949b5d146104e5578063e985e9c51461052457610135565b806370a08231146103535780637734a9f6146103905780638da5cb5b146103bb57806395d89b41146103e6578063a0712d681461041157610135565b806318160ddd116100fd57806318160ddd1461024557806323b872dd146102705780633ccfd60b1461029957806342842e0e146102b05780636352211e146102d9578063681947191461031657610135565b806301ffc9a71461013a57806306fdde0314610177578063081812fc146101a2578063095ea7b3146101df57806310df54a014610208575b600080fd5b34801561014657600080fd5b50610161600480360381019061015c9190612373565b610561565b60405161016e91906123bb565b60405180910390f35b34801561018357600080fd5b5061018c610643565b6040516101999190612466565b60405180910390f35b3480156101ae57600080fd5b506101c960048036038101906101c491906124be565b6106d5565b6040516101d6919061252c565b60405180910390f35b3480156101eb57600080fd5b5061020660048036038101906102019190612573565b61071b565b005b34801561021457600080fd5b5061022f600480360381019061022a91906124be565b610832565b60405161023c919061265c565b60405180910390f35b34801561025157600080fd5b5061025a610956565b604051610267919061268d565b60405180910390f35b34801561027c57600080fd5b50610297600480360381019061029291906126a8565b61095c565b005b3480156102a557600080fd5b506102ae6109bc565b005b3480156102bc57600080fd5b506102d760048036038101906102d291906126a8565b610b76565b005b3480156102e557600080fd5b5061030060048036038101906102fb91906124be565b610b96565b60405161030d919061252c565b60405180910390f35b34801561032257600080fd5b5061033d600480360381019061033891906126fb565b610c1c565b60405161034a91906123bb565b60405180910390f35b34801561035f57600080fd5b5061037a6004803603810190610375919061273b565b610c4b565b604051610387919061268d565b60405180910390f35b34801561039c57600080fd5b506103a5610d02565b6040516103b2919061268d565b60405180910390f35b3480156103c757600080fd5b506103d0610d08565b6040516103dd919061252c565b60405180910390f35b3480156103f257600080fd5b506103fb610d2e565b6040516104089190612466565b60405180910390f35b61042b600480360381019061042691906124be565b610dc0565b005b34801561043957600080fd5b50610454600480360381019061044f919061289d565b611031565b005b34801561046257600080fd5b5061047d60048036038101906104789190612925565b611179565b005b34801561048b57600080fd5b506104a660048036038101906104a19190612a06565b61118f565b005b3480156104b457600080fd5b506104cf60048036038101906104ca91906124be565b6111f1565b6040516104dc9190612466565b60405180910390f35b3480156104f157600080fd5b5061050c600480360381019061050791906124be565b611259565b60405161051b93929190612a89565b60405180910390f35b34801561053057600080fd5b5061054b60048036038101906105469190612ac7565b61130b565b60405161055891906123bb565b60405180910390f35b60007f80ac58cd000000000000000000000000000000000000000000000000000000007bffffffffffffffffffffffffffffffffffffffffffffffffffffffff1916827bffffffffffffffffffffffffffffffffffffffffffffffffffffffff1916148061062c57507f5b5e139f000000000000000000000000000000000000000000000000000000007bffffffffffffffffffffffffffffffffffffffffffffffffffffffff1916827bffffffffffffffffffffffffffffffffffffffffffffffffffffffff1916145b8061063c575061063b8261139f565b5b9050919050565b60606000805461065290612b36565b80601f016020809104026020016040519081016040528092919081815260200182805461067e90612b36565b80156106cb5780601f106106a0576101008083540402835291602001916106cb565b820191906000526020600020905b8154815290600101906020018083116106ae57829003601f168201915b5050505050905090565b60006106e082611409565b6004600083815260200190815260200160002060009054906101000a900473ffffffffffffffffffffffffffffffffffffffff169050919050565b600061072682610b96565b90508073ffffffffffffffffffffffffffffffffffffffff168373ffffffffffffffffffffffffffffffffffffffff1603610796576040517f08c379a000000000000000000000000000000000000000000000000000000000815260040161078d90612bd9565b60405180910390fd5b8073ffffffffffffffffffffffffffffffffffffffff166107b5611454565b73ffffffffffffffffffffffffffffffffffffffff1614806107e457506107e3816107de611454565b61130b565b5b610823576040517f08c379a000000000000000000000000000000000000000000000000000000000815260040161081a90612c6b565b60405180910390fd5b61082d838361145c565b505050565b61083a6122e6565b60008211801561084c57506008548211155b61088b576040517f08c379a000000000000000000000000000000000000000000000000000000000815260040161088290612cd7565b60405180910390fd5b600a6000838152602001908152602001600020604051806060016040529081600082015481526020016001820180546108c390612b36565b80601f01602080910402602001604051908101604052809291908181526020018280546108ef90612b36565b801561093c5780601f106109115761010080835404028352916020019161093c565b820191906000526020600020905b81548152906001019060200180831161091f57829003601f168201915b505050505081526020016002820154815250509050919050565b60075481565b61096d610967611454565b82611515565b6109ac576040517f08c379a00000000000000000000000000000000000000000000000000000000081526004016109a390612d69565b60405180910390fd5b6109b78383836115aa565b505050565b600960009054906101000a900473ffffffffffffffffffffffffffffffffffffffff1673ffffffffffffffffffffffffffffffffffffffff163373ffffffffffffffffffffffffffffffffffffffff1614610a4c576040517f08c379a0000000000000000000000000000000000000000000000000000000008152600401610a4390612dd5565b60405180910390fd5b610a546118a3565b600047905060008111610a9c576040517f08c379a0000000000000000000000000000000000000000000000000000000008152600401610a9390612e41565b60405180910390fd5b6000600960009054906101000a900473ffffffffffffffffffffffffffffffffffffffff1673ffffffffffffffffffffffffffffffffffffffff1682604051610ae490612e92565b60006040518083038185875af1925050503d8060008114610b21576040519150601f19603f3d011682016040523d82523d6000602084013e610b26565b606091505b5050905080610b6a576040517f08c379a0000000000000000000000000000000000000000000000000000000008152600401610b6190612ef3565b60405180910390fd5b5050610b746118f2565b565b610b918383836040518060200160405280600081525061118f565b505050565b600080610ba2836118fc565b9050600073ffffffffffffffffffffffffffffffffffffffff168173ffffffffffffffffffffffffffffffffffffffff1603610c13576040517f08c379a0000000000000000000000000000000000000000000000000000000008152600401610c0a90612f5f565b60405180910390fd5b80915050919050565b600b6020528160005260406000206020528060005260406000206000915091509054906101000a900460ff1681565b60008073ffffffffffffffffffffffffffffffffffffffff168273ffffffffffffffffffffffffffffffffffffffff1603610cbb576040517f08c379a0000000000000000000000000000000000000000000000000000000008152600401610cb290612ff1565b60405180910390fd5b600360008373ffffffffffffffffffffffffffffffffffffffff1673ffffffffffffffffffffffffffffffffffffffff168152602001908152602001600020549050919050565b60085481565b600960009054906101000a900473ffffffffffffffffffffffffffffffffffffffff1681565b606060018054610d3d90612b36565b80601f0160208091040260200160405190810160405280929190818152602001828054610d6990612b36565b8015610db65780601f10610d8b57610100808354040283529160200191610db6565b820191906000526020600020905b815481529060010190602001808311610d9957829003601f168201915b5050505050905090565b610dc86118a3565b60008103610e0b576040517f08c379a0000000000000000000000000000000000000000000000000000000008152600401610e029061305d565b60405180910390fd5b600854811115610e50576040517f08c379a0000000000000000000000000000000000000000000000000000000008152600401610e4790612cd7565b60405180910390fd5b600b600082815260200190815260200160002060003373ffffffffffffffffffffffffffffffffffffffff1673ffffffffffffffffffffffffffffffffffffffff16815260200190815260200160002060009054906101000a900460ff1615610eee576040517f08c379a0000000000000000000000000000000000000000000000000000000008152600401610ee5906130c9565b60405180910390fd5b600a600082815260200190815260200160002060020154341015610f47576040517f08c379a0000000000000000000000000000000000000000000000000000000008152600401610f3e90613135565b60405180910390fd5b6001600b600083815260200190815260200160002060003373ffffffffffffffffffffffffffffffffffffffff1673ffffffffffffffffffffffffffffffffffffffff16815260200190815260200160002060006101000a81548160ff02191690831515021790555060076000815480929190610fc390613184565b9190505550610fd433600754611939565b3373ffffffffffffffffffffffffffffffffffffffff167f96234cb3d6c373a1aaa06497a540bc166d4b0359243a088eaf95e21d7253d0be8260075460405161101e9291906131cc565b60405180910390a261102e6118f2565b50565b600960009054906101000a900473ffffffffffffffffffffffffffffffffffffffff1673ffffffffffffffffffffffffffffffffffffffff163373ffffffffffffffffffffffffffffffffffffffff16146110c1576040517f08c379a00000000000000000000000000000000000000000000000000000000081526004016110b890612dd5565b60405180910390fd5b600860008154809291906110d490613184565b91905055506040518060600160405280600854815260200183815260200182815250600a6000600854815260200190815260200160002060008201518160000155602082015181600101908161112a91906133a1565b50604082015181600201559050507f0d2054cd4b5b00c541fea07e8af0136637b383528db2f4bdfa9b7ae096e7dcf8600854838360405161116d93929190612a89565b60405180910390a15050565b61118b611184611454565b8383611957565b5050565b6111a061119a611454565b83611515565b6111df576040517f08c379a00000000000000000000000000000000000000000000000000000000081526004016111d690612d69565b60405180910390fd5b6111eb84848484611ac3565b50505050565b60606111fc82611409565b6000611206611b1f565b905060008151116112265760405180602001604052806000815250611251565b8061123084611b36565b6040516020016112419291906134af565b6040516020818303038152906040525b915050919050565b600a60205280600052604060002060009150905080600001549080600101805461128290612b36565b80601f01602080910402602001604051908101604052809291908181526020018280546112ae90612b36565b80156112fb5780601f106112d0576101008083540402835291602001916112fb565b820191906000526020600020905b8154815290600101906020018083116112de57829003601f168201915b5050505050908060020154905083565b6000600560008473ffffffffffffffffffffffffffffffffffffffff1673ffffffffffffffffffffffffffffffffffffffff16815260200190815260200160002060008373ffffffffffffffffffffffffffffffffffffffff1673ffffffffffffffffffffffffffffffffffffffff16815260200190815260200160002060009054906101000a900460ff16905092915050565b60007f01ffc9a7000000000000000000000000000000000000000000000000000000007bffffffffffffffffffffffffffffffffffffffffffffffffffffffff1916827bffffffffffffffffffffffffffffffffffffffffffffffffffffffff1916149050919050565b61141281611c04565b611451576040517f08c379a000000000000000000000000000000000000000000000000000000000815260040161144890612f5f565b60405180910390fd5b50565b600033905090565b816004600083815260200190815260200160002060006101000a81548173ffffffffffffffffffffffffffffffffffffffff021916908373ffffffffffffffffffffffffffffffffffffffff160217905550808273ffffffffffffffffffffffffffffffffffffffff166114cf83610b96565b73ffffffffffffffffffffffffffffffffffffffff167f8c5be1e5ebec7d5bd14f71427d1e84f3dd0314c0f7b2291e5b200ac8c7c3b92560405160405180910390a45050565b60008061152183610b96565b90508073ffffffffffffffffffffffffffffffffffffffff168473ffffffffffffffffffffffffffffffffffffffff1614806115635750611562818561130b565b5b806115a157508373ffffffffffffffffffffffffffffffffffffffff16611589846106d5565b73ffffffffffffffffffffffffffffffffffffffff16145b91505092915050565b8273ffffffffffffffffffffffffffffffffffffffff166115ca82610b96565b73ffffffffffffffffffffffffffffffffffffffff1614611620576040517f08c379a000000000000000000000000000000000000000000000000000000000815260040161161790613545565b60405180910390fd5b600073ffffffffffffffffffffffffffffffffffffffff168273ffffffffffffffffffffffffffffffffffffffff160361168f576040517f08c379a0000000000000000000000000000000000000000000000000000000008152600401611686906135d7565b60405180910390fd5b61169c8383836001611c45565b8273ffffffffffffffffffffffffffffffffffffffff166116bc82610b96565b73ffffffffffffffffffffffffffffffffffffffff1614611712576040517f08c379a000000000000000000000000000000000000000000000000000000000815260040161170990613545565b60405180910390fd5b6004600082815260200190815260200160002060006101000a81549073ffffffffffffffffffffffffffffffffffffffff02191690556001600360008573ffffffffffffffffffffffffffffffffffffffff1673ffffffffffffffffffffffffffffffffffffffff168152602001908152602001600020600082825403925050819055506001600360008473ffffffffffffffffffffffffffffffffffffffff1673ffffffffffffffffffffffffffffffffffffffff16815260200190815260200160002060008282540192505081905550816002600083815260200190815260200160002060006101000a81548173ffffffffffffffffffffffffffffffffffffffff021916908373ffffffffffffffffffffffffffffffffffffffff160217905550808273ffffffffffffffffffffffffffffffffffffffff168473ffffffffffffffffffffffffffffffffffffffff167fddf252ad1be2c89b69c2b068fc378daa952ba7f163c4a11628f55a4df523b3ef60405160405180910390a461189e8383836001611d6b565b505050565b6002600654036118e8576040517f08c379a00000000000000000000000000000000000000000000000000000000081526004016118df90613643565b60405180910390fd5b6002600681905550565b6001600681905550565b60006002600083815260200190815260200160002060009054906101000a900473ffffffffffffffffffffffffffffffffffffffff169050919050565b611953828260405180602001604052806000815250611d71565b5050565b8173ffffffffffffffffffffffffffffffffffffffff168373ffffffffffffffffffffffffffffffffffffffff16036119c5576040517f08c379a00000000000000000000000000000000000000000000000000000000081526004016119bc906136af565b60405180910390fd5b80600560008573ffffffffffffffffffffffffffffffffffffffff1673ffffffffffffffffffffffffffffffffffffffff16815260200190815260200160002060008473ffffffffffffffffffffffffffffffffffffffff1673ffffffffffffffffffffffffffffffffffffffff16815260200190815260200160002060006101000a81548160ff0219169083151502179055508173ffffffffffffffffffffffffffffffffffffffff168373ffffffffffffffffffffffffffffffffffffffff167f17307eab39ab6107e8899845ad3d59bd9653f200f220920489ca2b5937696c3183604051611ab691906123bb565b60405180910390a3505050565b611ace8484846115aa565b611ada84848484611dcc565b611b19576040517f08c379a0000000000000000000000000000000000000000000000000000000008152600401611b1090613741565b60405180910390fd5b50505050565b606060405180602001604052806000815250905090565b606060006001611b4584611f53565b01905060008167ffffffffffffffff811115611b6457611b63612772565b5b6040519080825280601f01601f191660200182016040528015611b965781602001600182028036833780820191505090505b509050600082602001820190505b600115611bf9578080600190039150507f3031323334353637383961626364656600000000000000000000000000000000600a86061a8153600a8581611bed57611bec613761565b5b04945060008503611ba4575b819350505050919050565b60008073ffffffffffffffffffffffffffffffffffffffff16611c26836118fc565b73ffffffffffffffffffffffffffffffffffffffff1614159050919050565b6001811115611d6557600073ffffffffffffffffffffffffffffffffffffffff168473ffffffffffffffffffffffffffffffffffffffff1614611cd95780600360008673ffffffffffffffffffffffffffffffffffffffff1673ffffffffffffffffffffffffffffffffffffffff1681526020019081526020016000206000828254611cd19190613790565b925050819055505b600073ffffffffffffffffffffffffffffffffffffffff168373ffffffffffffffffffffffffffffffffffffffff1614611d645780600360008573ffffffffffffffffffffffffffffffffffffffff1673ffffffffffffffffffffffffffffffffffffffff1681526020019081526020016000206000828254611d5c91906137c4565b925050819055505b5b50505050565b50505050565b611d7b83836120a6565b611d886000848484611dcc565b611dc7576040517f08c379a0000000000000000000000000000000000000000000000000000000008152600401611dbe90613741565b60405180910390fd5b505050565b6000611ded8473ffffffffffffffffffffffffffffffffffffffff166122c3565b15611f46578373ffffffffffffffffffffffffffffffffffffffff1663150b7a02611e16611454565b8786866040518563ffffffff1660e01b8152600401611e38949392919061384d565b6020604051808303816000875af1925050508015611e7457506040513d601f19601f82011682018060405250810190611e7191906138ae565b60015b611ef6573d8060008114611ea4576040519150601f19603f3d011682016040523d82523d6000602084013e611ea9565b606091505b506000815103611eee576040517f08c379a0000000000000000000000000000000000000000000000000000000008152600401611ee590613741565b60405180910390fd5b805181602001fd5b63150b7a0260e01b7bffffffffffffffffffffffffffffffffffffffffffffffffffffffff1916817bffffffffffffffffffffffffffffffffffffffffffffffffffffffff191614915050611f4b565b600190505b949350505050565b600080600090507a184f03e93ff9f4daa797ed6e38ed64bf6a1f0100000000000000008310611fb1577a184f03e93ff9f4daa797ed6e38ed64bf6a1f0100000000000000008381611fa757611fa6613761565b5b0492506040810190505b6d04ee2d6d415b85acef81000000008310611fee576d04ee2d6d415b85acef81000000008381611fe457611fe3613761565b5b0492506020810190505b662386f26fc10000831061201d57662386f26fc10000838161201357612012613761565b5b0492506010810190505b6305f5e1008310612046576305f5e100838161203c5761203b613761565b5b0492506008810190505b612710831061206b57612710838161206157612060613761565b5b0492506004810190505b6064831061208e576064838161208457612083613761565b5b0492506002810190505b600a831061209d576001810190505b80915050919050565b600073ffffffffffffffffffffffffffffffffffffffff168273ffffffffffffffffffffffffffffffffffffffff1603612115576040517f08c379a000000000000000000000000000000000000000000000000000000000815260040161210c90613927565b60405180910390fd5b61211e81611c04565b1561215e576040517f08c379a000000000000000000000000000000000000000000000000000000000815260040161215590613993565b60405180910390fd5b61216c600083836001611c45565b61217581611c04565b156121b5576040517f08c379a00000000000000000000000000000000000000000000000000000000081526004016121ac90613993565b60405180910390fd5b6001600360008473ffffffffffffffffffffffffffffffffffffffff1673ffffffffffffffffffffffffffffffffffffffff16815260200190815260200160002060008282540192505081905550816002600083815260200190815260200160002060006101000a81548173ffffffffffffffffffffffffffffffffffffffff021916908373ffffffffffffffffffffffffffffffffffffffff160217905550808273ffffffffffffffffffffffffffffffffffffffff16600073ffffffffffffffffffffffffffffffffffffffff167fddf252ad1be2c89b69c2b068fc378daa952ba7f163c4a11628f55a4df523b3ef60405160405180910390a46122bf600083836001611d6b565b5050565b6000808273ffffffffffffffffffffffffffffffffffffffff163b119050919050565b60405180606001604052806000815260200160608152602001600081525090565b6000604051905090565b600080fd5b600080fd5b60007fffffffff0000000000000000000000000000000000000000000000000000000082169050919050565b6123508161231b565b811461235b57600080fd5b50565b60008135905061236d81612347565b92915050565b60006020828403121561238957612388612311565b5b60006123978482850161235e565b91505092915050565b60008115159050919050565b6123b5816123a0565b82525050565b60006020820190506123d060008301846123ac565b92915050565b600081519050919050565b600082825260208201905092915050565b60005b838110156124105780820151818401526020810190506123f5565b60008484015250505050565b6000601f19601f8301169050919050565b6000612438826123d6565b61244281856123e1565b93506124528185602086016123f2565b61245b8161241c565b840191505092915050565b60006020820190508181036000830152612480818461242d565b905092915050565b6000819050919050565b61249b81612488565b81146124a657600080fd5b50565b6000813590506124b881612492565b92915050565b6000602082840312156124d4576124d3612311565b5b60006124e2848285016124a9565b91505092915050565b600073ffffffffffffffffffffffffffffffffffffffff82169050919050565b6000612516826124eb565b9050919050565b6125268161250b565b82525050565b6000602082019050612541600083018461251d565b92915050565b6125508161250b565b811461255b57600080fd5b50565b60008135905061256d81612547565b92915050565b6000806040838503121561258a57612589612311565b5b60006125988582860161255e565b92505060206125a9858286016124a9565b9150509250929050565b6125bc81612488565b82525050565b600082825260208201905092915050565b60006125de826123d6565b6125e881856125c2565b93506125f88185602086016123f2565b6126018161241c565b840191505092915050565b600060608301600083015161262460008601826125b3565b506020830151848203602086015261263c82826125d3565b915050604083015161265160408601826125b3565b508091505092915050565b60006020820190508181036000830152612676818461260c565b905092915050565b61268781612488565b82525050565b60006020820190506126a2600083018461267e565b92915050565b6000806000606084860312156126c1576126c0612311565b5b60006126cf8682870161255e565b93505060206126e08682870161255e565b92505060406126f1868287016124a9565b9150509250925092565b6000806040838503121561271257612711612311565b5b6000612720858286016124a9565b92505060206127318582860161255e565b9150509250929050565b60006020828403121561275157612750612311565b5b600061275f8482850161255e565b91505092915050565b600080fd5b600080fd5b7f4e487b7100000000000000000000000000000000000000000000000000000000600052604160045260246000fd5b6127aa8261241c565b810181811067ffffffffffffffff821117156127c9576127c8612772565b5b80604052505050565b60006127dc612307565b90506127e882826127a1565b919050565b600067ffffffffffffffff82111561280857612807612772565b5b6128118261241c565b9050602081019050919050565b82818337600083830152505050565b600061284061283b846127ed565b6127d2565b90508281526020810184848401111561285c5761285b61276d565b5b61286784828561281e565b509392505050565b600082601f83011261288457612883612768565b5b813561289484826020860161282d565b91505092915050565b600080604083850312156128b4576128b3612311565b5b600083013567ffffffffffffffff8111156128d2576128d1612316565b5b6128de8582860161286f565b92505060206128ef858286016124a9565b9150509250929050565b612902816123a0565b811461290d57600080fd5b50565b60008135905061291f816128f9565b92915050565b6000806040838503121561293c5761293b612311565b5b600061294a8582860161255e565b925050602061295b85828601612910565b9150509250929050565b600067ffffffffffffffff8211156129805761297f612772565b5b6129898261241c565b9050602081019050919050565b60006129a96129a484612965565b6127d2565b9050828152602081018484840111156129c5576129c461276d565b5b6129d084828561281e565b509392505050565b600082601f8301126129ed576129ec612768565b5b81356129fd848260208601612996565b91505092915050565b60008060008060808587031215612a2057612a1f612311565b5b6000612a2e8782880161255e565b9450506020612a3f8782880161255e565b9350506040612a50878288016124a9565b925050606085013567ffffffffffffffff811115612a7157612a70612316565b5b612a7d878288016129d8565b91505092959194509250565b6000606082019050612a9e600083018661267e565b8181036020830152612ab0818561242d565b9050612abf604083018461267e565b949350505050565b60008060408385031215612ade57612add612311565b5b6000612aec8582860161255e565b9250506020612afd8582860161255e565b9150509250929050565b7f4e487b7100000000000000000000000000000000000000000000000000000000600052602260045260246000fd5b60006002820490506001821680612b4e57607f821691505b602082108103612b6157612b60612b07565b5b50919050565b7f4552433732313a20617070726f76616c20746f2063757272656e74206f776e6560008201527f7200000000000000000000000000000000000000000000000000000000000000602082015250565b6000612bc36021836123e1565b9150612bce82612b67565b604082019050919050565b60006020820190508181036000830152612bf281612bb6565b9050919050565b7f4552433732313a20617070726f76652063616c6c6572206973206e6f7420746f60008201527f6b656e206f776e6572206f7220617070726f76656420666f7220616c6c000000602082015250565b6000612c55603d836123e1565b9150612c6082612bf9565b604082019050919050565b60006020820190508181036000830152612c8481612c48565b9050919050565b7f4368616e6e656c20646f6573206e6f7420657869737400000000000000000000600082015250565b6000612cc16016836123e1565b9150612ccc82612c8b565b602082019050919050565b60006020820190508181036000830152612cf081612cb4565b9050919050565b7f4552433732313a2063616c6c6572206973206e6f7420746f6b656e206f776e6560008201527f72206f7220617070726f76656400000000000000000000000000000000000000602082015250565b6000612d53602d836123e1565b9150612d5e82612cf7565b604082019050919050565b60006020820190508181036000830152612d8281612d46565b9050919050565b7f4e6f742074686520636f6e7472616374206f776e657200000000000000000000600082015250565b6000612dbf6016836123e1565b9150612dca82612d89565b602082019050919050565b60006020820190508181036000830152612dee81612db2565b9050919050565b7f4e6f2062616c616e636520746f20776974686472617700000000000000000000600082015250565b6000612e2b6016836123e1565b9150612e3682612df5565b602082019050919050565b60006020820190508181036000830152612e5a81612e1e565b9050919050565b600081905092915050565b50565b6000612e7c600083612e61565b9150612e8782612e6c565b600082019050919050565b6000612e9d82612e6f565b9150819050919050565b7f5769746864726177206661696c65640000000000000000000000000000000000600082015250565b6000612edd600f836123e1565b9150612ee882612ea7565b602082019050919050565b60006020820190508181036000830152612f0c81612ed0565b9050919050565b7f4552433732313a20696e76616c696420746f6b656e2049440000000000000000600082015250565b6000612f496018836123e1565b9150612f5482612f13565b602082019050919050565b60006020820190508181036000830152612f7881612f3c565b9050919050565b7f4552433732313a2061646472657373207a65726f206973206e6f74206120766160008201527f6c6964206f776e65720000000000000000000000000000000000000000000000602082015250565b6000612fdb6029836123e1565b9150612fe682612f7f565b604082019050919050565b6000602082019050818103600083015261300a81612fce565b9050919050565b7f496e76616c6964206368616e6e656c2049440000000000000000000000000000600082015250565b60006130476012836123e1565b915061305282613011565b602082019050919050565b600060208201905081810360008301526130768161303a565b9050919050565b7f416c7265616479206a6f696e6564206368616e6e656c00000000000000000000600082015250565b60006130b36016836123e1565b91506130be8261307d565b602082019050919050565b600060208201905081810360008301526130e2816130a6565b9050919050565b7f496e73756666696369656e742066756e64730000000000000000000000000000600082015250565b600061311f6012836123e1565b915061312a826130e9565b602082019050919050565b6000602082019050818103600083015261314e81613112565b9050919050565b7f4e487b7100000000000000000000000000000000000000000000000000000000600052601160045260246000fd5b600061318f82612488565b91507fffffffffffffffffffffffffffffffffffffffffffffffffffffffffffffffff82036131c1576131c0613155565b5b600182019050919050565b60006040820190506131e1600083018561267e565b6131ee602083018461267e565b9392505050565b60008190508160005260206000209050919050565b60006020601f8301049050919050565b600082821b905092915050565b6000600883026132577fffffffffffffffffffffffffffffffffffffffffffffffffffffffffffffffff8261321a565b613261868361321a565b95508019841693508086168417925050509392505050565b6000819050919050565b600061329e61329961329484612488565b613279565b612488565b9050919050565b6000819050919050565b6132b883613283565b6132cc6132c4826132a5565b848454613227565b825550505050565b600090565b6132e16132d4565b6132ec8184846132af565b505050565b5b81811015613310576133056000826132d9565b6001810190506132f2565b5050565b601f82111561335557613326816131f5565b61332f8461320a565b8101602085101561333e578190505b61335261334a8561320a565b8301826132f1565b50505b505050565b600082821c905092915050565b60006133786000198460080261335a565b1980831691505092915050565b60006133918383613367565b9150826002028217905092915050565b6133aa826123d6565b67ffffffffffffffff8111156133c3576133c2612772565b5b6133cd8254612b36565b6133d8828285613314565b600060209050601f83116001811461340b57600084156133f9578287015190505b6134038582613385565b86555061346b565b601f198416613419866131f5565b60005b828110156134415784890151825560018201915060208501945060208101905061341c565b8683101561345e578489015161345a601f891682613367565b8355505b6001600288020188555050505b505050505050565b600081905092915050565b6000613489826123d6565b6134938185613473565b93506134a38185602086016123f2565b80840191505092915050565b60006134bb828561347e565b91506134c7828461347e565b91508190509392505050565b7f4552433732313a207472616e736665722066726f6d20696e636f72726563742060008201527f6f776e6572000000000000000000000000000000000000000000000000000000602082015250565b600061352f6025836123e1565b915061353a826134d3565b604082019050919050565b6000602082019050818103600083015261355e81613522565b9050919050565b7f4552433732313a207472616e7366657220746f20746865207a65726f2061646460008201527f7265737300000000000000000000000000000000000000000000000000000000602082015250565b60006135c16024836123e1565b91506135cc82613565565b604082019050919050565b600060208201905081810360008301526135f0816135b4565b9050919050565b7f5265656e7472616e637947756172643a207265656e7472616e742063616c6c00600082015250565b600061362d601f836123e1565b9150613638826135f7565b602082019050919050565b6000602082019050818103600083015261365c81613620565b9050919050565b7f4552433732313a20617070726f766520746f2063616c6c657200000000000000600082015250565b60006136996019836123e1565b91506136a482613663565b602082019050919050565b600060208201905081810360008301526136c88161368c565b9050919050565b7f4552433732313a207472616e7366657220746f206e6f6e20455243373231526560008201527f63656976657220696d706c656d656e7465720000000000000000000000000000602082015250565b600061372b6032836123e1565b9150613736826136cf565b604082019050919050565b6000602082019050818103600083015261375a8161371e565b9050919050565b7f4e487b7100000000000000000000000000000000000000000000000000000000600052601260045260246000fd5b600061379b82612488565b91506137a683612488565b92508282039050818111156137be576137bd613155565b5b92915050565b60006137cf82612488565b91506137da83612488565b92508282019050808211156137f2576137f1613155565b5b92915050565b600081519050919050565b600082825260208201905092915050565b600061381f826137f8565b6138298185613803565b93506138398185602086016123f2565b6138428161241c565b840191505092915050565b6000608082019050613862600083018761251d565b61386f602083018661251d565b61387c604083018561267e565b818103606083015261388e8184613814565b905095945050505050565b6000815190506138a881612347565b92915050565b6000602082840312156138c4576138c3612311565b5b60006138d284828501613899565b91505092915050565b7f4552433732313a206d696e7420746f20746865207a65726f2061646472657373600082015250565b60006139116020836123e1565b915061391c826138db565b602082019050919050565b6000602082019050818103600083015261394081613904565b9050919050565b7f4552433732313a20746f6b656e20616c7265616479206d696e74656400000000600082015250565b600061397d601c836123e1565b915061398882613947565b602082019050919050565b600060208201905081810360008301526139ac81613970565b905091905056fea2646970667358221220a6d1b5edc2cec3d8837e4fcbaf66dba1b14250387d5bedec029356839d55769664736f6c63430008110033",
  "linkReferences": {},
  "deployedLinkReferences": {}
}